{
  "contractName": "ChainRideContract",
  "abi": [
    {
      "anonymous": false,
      "inputs": [
        {
          "indexed": true,
          "internalType": "address",
          "name": "clientMetaAccount",
          "type": "address"
        },
        {
          "indexed": false,
          "internalType": "uint256",
          "name": "price",
          "type": "uint256"
        },
        {
          "indexed": false,
          "internalType": "uint256",
          "name": "distance",
          "type": "uint256"
        },
        {
          "indexed": false,
          "internalType": "int256",
          "name": "initialLongitude",
          "type": "int256"
        },
        {
          "indexed": false,
          "internalType": "int256",
          "name": "initialLatitude",
          "type": "int256"
        },
        {
          "indexed": false,
          "internalType": "int256",
          "name": "finalLongitude",
          "type": "int256"
        },
        {
          "indexed": false,
          "internalType": "int256",
          "name": "finalLatitude",
          "type": "int256"
        },
        {
          "indexed": false,
          "internalType": "address",
          "name": "driverMetaAccount",
          "type": "address"
        }
      ],
      "name": "TripRecorded",
      "type": "event"
    },
    {
      "inputs": [
        {
          "internalType": "address",
          "name": "",
          "type": "address"
        }
      ],
      "name": "trips",
      "outputs": [
        {
          "internalType": "uint256",
          "name": "price",
          "type": "uint256"
        },
        {
          "internalType": "uint256",
          "name": "distance",
          "type": "uint256"
        },
        {
          "internalType": "int256",
          "name": "initialLongitude",
          "type": "int256"
        },
        {
          "internalType": "int256",
          "name": "initialLatitude",
          "type": "int256"
        },
        {
          "internalType": "int256",
          "name": "finalLongitude",
          "type": "int256"
        },
        {
          "internalType": "int256",
          "name": "finalLatitude",
          "type": "int256"
        },
        {
          "internalType": "address",
          "name": "clientMetaAccount",
          "type": "address"
        },
        {
          "internalType": "address",
          "name": "driverMetaAccount",
          "type": "address"
        }
      ],
      "stateMutability": "view",
      "type": "function"
    },
    {
      "inputs": [
        {
          "internalType": "uint256",
          "name": "price",
          "type": "uint256"
        },
        {
          "internalType": "uint256",
          "name": "distance",
          "type": "uint256"
        },
        {
          "internalType": "int256",
          "name": "initialLongitude",
          "type": "int256"
        },
        {
          "internalType": "int256",
          "name": "initialLatitude",
          "type": "int256"
        },
        {
          "internalType": "int256",
          "name": "finalLongitude",
          "type": "int256"
        },
        {
          "internalType": "int256",
          "name": "finalLatitude",
          "type": "int256"
        },
        {
          "internalType": "address",
          "name": "clientMetaAccount",
          "type": "address"
        },
        {
          "internalType": "address",
          "name": "driverMetaAccount",
          "type": "address"
        }
      ],
      "name": "recordTrip",
      "outputs": [],
      "stateMutability": "nonpayable",
      "type": "function"
    },
    {
      "inputs": [
        {
          "internalType": "address",
          "name": "clientMetaAccount",
          "type": "address"
        }
      ],
      "name": "getTrip",
      "outputs": [
        {
          "internalType": "uint256",
          "name": "",
          "type": "uint256"
        },
        {
          "internalType": "uint256",
          "name": "",
          "type": "uint256"
        },
        {
          "internalType": "int256",
          "name": "",
          "type": "int256"
        },
        {
          "internalType": "int256",
          "name": "",
          "type": "int256"
        },
        {
          "internalType": "int256",
          "name": "",
          "type": "int256"
        },
        {
          "internalType": "int256",
          "name": "",
          "type": "int256"
        },
        {
          "internalType": "address",
          "name": "",
          "type": "address"
        },
        {
          "internalType": "address",
          "name": "",
          "type": "address"
        }
      ],
      "stateMutability": "view",
      "type": "function"
    }
  ],
  "bytecode": "0x608060405234801561000f575f80fd5b506109408061001d5f395ff3fe608060405234801561000f575f80fd5b506004361061003f575f3560e01c80631260aca71461004357806385b96d711461007a578063c5fe3a5414610096575b5f80fd5b61005d600480360381019061005891906105d2565b6100cd565b60405161007198979695949392919061063c565b60405180910390f35b610094600480360381019061008f919061070c565b61014e565b005b6100b060048036038101906100ab91906105d2565b6103f9565b6040516100c498979695949392919061063c565b60405180910390f35b5f602052805f5260405f205f91509050805f015490806001015490806002015490806003015490806004015490806005015490806006015f9054906101000a900473ffffffffffffffffffffffffffffffffffffffff1690806007015f9054906101000a900473ffffffffffffffffffffffffffffffffffffffff16905088565b5f73ffffffffffffffffffffffffffffffffffffffff168273ffffffffffffffffffffffffffffffffffffffff16036101bc576040517f08c379a00000000000000000000000000000000000000000000000000000000081526004016101b390610817565b60405180910390fd5b5f73ffffffffffffffffffffffffffffffffffffffff168173ffffffffffffffffffffffffffffffffffffffff160361022a576040517f08c379a00000000000000000000000000000000000000000000000000000000081526004016102219061087f565b60405180910390fd5b6040518061010001604052808981526020018881526020018781526020018681526020018581526020018481526020018373ffffffffffffffffffffffffffffffffffffffff1681526020018273ffffffffffffffffffffffffffffffffffffffff168152505f808473ffffffffffffffffffffffffffffffffffffffff1673ffffffffffffffffffffffffffffffffffffffff1681526020019081526020015f205f820151815f01556020820151816001015560408201518160020155606082015181600301556080820151816004015560a0820151816005015560c0820151816006015f6101000a81548173ffffffffffffffffffffffffffffffffffffffff021916908373ffffffffffffffffffffffffffffffffffffffff16021790555060e0820151816007015f6101000a81548173ffffffffffffffffffffffffffffffffffffffff021916908373ffffffffffffffffffffffffffffffffffffffff1602179055509050508173ffffffffffffffffffffffffffffffffffffffff167f96b801a982a9f93e99c7e4502d111437edb0c70dd648a6d878e8a710b41d1a2b898989898989886040516103e7979695949392919061089d565b60405180910390a25050505050505050565b5f805f805f805f805f805f8b73ffffffffffffffffffffffffffffffffffffffff1673ffffffffffffffffffffffffffffffffffffffff1681526020019081526020015f20604051806101000160405290815f82015481526020016001820154815260200160028201548152602001600382015481526020016004820154815260200160058201548152602001600682015f9054906101000a900473ffffffffffffffffffffffffffffffffffffffff1673ffffffffffffffffffffffffffffffffffffffff1673ffffffffffffffffffffffffffffffffffffffff168152602001600782015f9054906101000a900473ffffffffffffffffffffffffffffffffffffffff1673ffffffffffffffffffffffffffffffffffffffff1673ffffffffffffffffffffffffffffffffffffffff16815250509050805f015181602001518260400151836060015184608001518560a001518660c001518760e001519850985098509850985098509850985050919395975091939597565b5f80fd5b5f73ffffffffffffffffffffffffffffffffffffffff82169050919050565b5f6105a182610578565b9050919050565b6105b181610597565b81146105bb575f80fd5b50565b5f813590506105cc816105a8565b92915050565b5f602082840312156105e7576105e6610574565b5b5f6105f4848285016105be565b91505092915050565b5f819050919050565b61060f816105fd565b82525050565b5f819050919050565b61062781610615565b82525050565b61063681610597565b82525050565b5f610100820190506106505f83018b610606565b61065d602083018a610606565b61066a604083018961061e565b610677606083018861061e565b610684608083018761061e565b61069160a083018661061e565b61069e60c083018561062d565b6106ab60e083018461062d565b9998505050505050505050565b6106c1816105fd565b81146106cb575f80fd5b50565b5f813590506106dc816106b8565b92915050565b6106eb81610615565b81146106f5575f80fd5b50565b5f81359050610706816106e2565b92915050565b5f805f805f805f80610100898b03121561072957610728610574565b5b5f6107368b828c016106ce565b98505060206107478b828c016106ce565b97505060406107588b828c016106f8565b96505060606107698b828c016106f8565b955050608061077a8b828c016106f8565b94505060a061078b8b828c016106f8565b93505060c061079c8b828c016105be565b92505060e06107ad8b828c016105be565b9150509295985092959890939650565b5f82825260208201905092915050565b7f496e76616c696420636c69656e742061646472657373000000000000000000005f82015250565b5f6108016016836107bd565b915061080c826107cd565b602082019050919050565b5f6020820190508181035f83015261082e816107f5565b9050919050565b7f496e76616c6964206472697665722061646472657373000000000000000000005f82015250565b5f6108696016836107bd565b915061087482610835565b602082019050919050565b5f6020820190508181035f8301526108968161085d565b9050919050565b5f60e0820190506108b05f83018a610606565b6108bd6020830189610606565b6108ca604083018861061e565b6108d7606083018761061e565b6108e4608083018661061e565b6108f160a083018561061e565b6108fe60c083018461062d565b9897505050505050505056fea2646970667358221220361f16970f572556c5d6545227ab48733e21468c4c4b5b3ac96be6fa208fe07364736f6c63430008150033",
  "immutableReferences": {},
  "source": "// SPDX-License-Identifier: UNLICENSED\r\npragma solidity ^0.8.0;\r\n\r\ncontract ChainRideContract {\r\n    struct Trip {\r\n        uint256 price;\r\n        uint256 distance;\r\n        int256 initialLongitude;\r\n        int256 initialLatitude;\r\n        int256 finalLongitude;\r\n        int256 finalLatitude;\r\n        address clientMetaAccount;\r\n        address driverMetaAccount;\r\n    }\r\n\r\n    // A mapping to store trips, indexed by the client's Ethereum address (clientMetaAccount)\r\n    mapping(address => Trip) public trips;\r\n\r\n    event TripRecorded(\r\n        address indexed clientMetaAccount,\r\n        uint256 price,\r\n        uint256 distance,\r\n        int256 initialLongitude,\r\n        int256 initialLatitude,\r\n        int256 finalLongitude,\r\n        int256 finalLatitude,\r\n        address driverMetaAccount\r\n    );\r\n\r\n    // Function to record a new trip\r\n    function recordTrip(\r\n        uint256 price,\r\n        uint256 distance,\r\n        int256 initialLongitude,\r\n        int256 initialLatitude,\r\n        int256 finalLongitude,\r\n        int256 finalLatitude,\r\n        address clientMetaAccount,\r\n        address driverMetaAccount\r\n    ) public {\r\n        // Check that the addresses are not zero\r\n        require(clientMetaAccount != address(0), \"Invalid client address\");\r\n        require(driverMetaAccount != address(0), \"Invalid driver address\");\r\n\r\n        // Create a new Trip struct and store it using the client's address as the key\r\n        trips[clientMetaAccount] = Trip({\r\n            price: price,\r\n            distance: distance,\r\n            initialLongitude: initialLongitude,\r\n            initialLatitude: initialLatitude,\r\n            finalLongitude: finalLongitude,\r\n            finalLatitude: finalLatitude,\r\n            clientMetaAccount: clientMetaAccount,\r\n            driverMetaAccount: driverMetaAccount\r\n        });\r\n\r\n        emit TripRecorded(\r\n            clientMetaAccount,\r\n            price,\r\n            distance,\r\n            initialLongitude,\r\n            initialLatitude,\r\n            finalLongitude,\r\n            finalLatitude,\r\n            driverMetaAccount\r\n        );\r\n    }\r\n\r\n    // Function to get trip details by clientMetaAccount (used instead of tripId)\r\n    function getTrip(\r\n        address clientMetaAccount\r\n    )\r\n        public\r\n        view\r\n        returns (\r\n            uint256,\r\n            uint256,\r\n            int256,\r\n            int256,\r\n            int256,\r\n            int256,\r\n            address,\r\n            address\r\n        )\r\n    {\r\n        Trip memory t = trips[clientMetaAccount];\r\n        return (\r\n            t.price,\r\n            t.distance,\r\n            t.initialLongitude,\r\n            t.initialLatitude,\r\n            t.finalLongitude,\r\n            t.finalLatitude,\r\n            t.clientMetaAccount,\r\n            t.driverMetaAccount\r\n        );\r\n    }\r\n}\r\n",
  "sourcePath": "C:\\React\\Final-Project1\\SmartContract\\contracts\\ChainRideContract.sol",
  "compiler": {
    "name": "solc",
    "version": "0.8.21+commit.d9974bed.Emscripten.clang"
  },
  "schemaVersion": "3.4.16",
  "updatedAt": "2024-11-21T06:37:00.937Z",
  "devdoc": {
    "kind": "dev",
    "methods": {},
    "version": 1
  },
  "userdoc": {
    "kind": "user",
    "methods": {},
    "version": 1
  }
}