{
  "contractName": "ChainRideContract",
  "abi": [
    {
      "constant": true,
      "inputs": [
        {
          "name": "",
          "type": "address"
        }
      ],
      "name": "trips",
      "outputs": [
        {
          "name": "price",
          "type": "uint256"
        },
        {
          "name": "distance",
          "type": "uint256"
        },
        {
          "name": "initialLongitude",
          "type": "int256"
        },
        {
          "name": "initialLatitude",
          "type": "int256"
        },
        {
          "name": "finalLongitude",
          "type": "int256"
        },
        {
          "name": "finalLatitude",
          "type": "int256"
        },
        {
          "name": "clientMetaAccount",
          "type": "address"
        },
        {
          "name": "driverMetaAccount",
          "type": "address"
        }
      ],
      "payable": false,
      "stateMutability": "view",
      "type": "function"
    },
    {
      "anonymous": false,
      "inputs": [
        {
          "indexed": true,
          "name": "clientMetaAccount",
          "type": "address"
        },
        {
          "indexed": false,
          "name": "price",
          "type": "uint256"
        },
        {
          "indexed": false,
          "name": "distance",
          "type": "uint256"
        },
        {
          "indexed": false,
          "name": "initialLongitude",
          "type": "int256"
        },
        {
          "indexed": false,
          "name": "initialLatitude",
          "type": "int256"
        },
        {
          "indexed": false,
          "name": "finalLongitude",
          "type": "int256"
        },
        {
          "indexed": false,
          "name": "finalLatitude",
          "type": "int256"
        },
        {
          "indexed": false,
          "name": "driverMetaAccount",
          "type": "address"
        }
      ],
      "name": "TripRecorded",
      "type": "event"
    },
    {
      "constant": false,
      "inputs": [
        {
          "name": "price",
          "type": "uint256"
        },
        {
          "name": "distance",
          "type": "uint256"
        },
        {
          "name": "initialLongitude",
          "type": "int256"
        },
        {
          "name": "initialLatitude",
          "type": "int256"
        },
        {
          "name": "finalLongitude",
          "type": "int256"
        },
        {
          "name": "finalLatitude",
          "type": "int256"
        },
        {
          "name": "clientMetaAccount",
          "type": "address"
        },
        {
          "name": "driverMetaAccount",
          "type": "address"
        }
      ],
      "name": "recordTrip",
      "outputs": [],
      "payable": false,
      "stateMutability": "nonpayable",
      "type": "function"
    },
    {
      "constant": true,
      "inputs": [
        {
          "name": "clientMetaAccount",
          "type": "address"
        }
      ],
      "name": "getTrip",
      "outputs": [
        {
          "name": "",
          "type": "uint256"
        },
        {
          "name": "",
          "type": "uint256"
        },
        {
          "name": "",
          "type": "int256"
        },
        {
          "name": "",
          "type": "int256"
        },
        {
          "name": "",
          "type": "int256"
        },
        {
          "name": "",
          "type": "int256"
        },
        {
          "name": "",
          "type": "address"
        },
        {
          "name": "",
          "type": "address"
        }
      ],
      "payable": false,
      "stateMutability": "view",
      "type": "function"
    }
  ],
  "bytecode": "0x608060405234801561001057600080fd5b506108de806100206000396000f300608060405260043610610057576000357c0100000000000000000000000000000000000000000000000000000000900463ffffffff1680631260aca71461005c57806385b96d711461013c578063c5fe3a54146101db575b600080fd5b34801561006857600080fd5b5061009d600480360381019080803573ffffffffffffffffffffffffffffffffffffffff1690602001909291905050506102bb565b604051808981526020018881526020018781526020018681526020018581526020018481526020018373ffffffffffffffffffffffffffffffffffffffff1673ffffffffffffffffffffffffffffffffffffffff1681526020018273ffffffffffffffffffffffffffffffffffffffff1673ffffffffffffffffffffffffffffffffffffffff1681526020019850505050505050505060405180910390f35b34801561014857600080fd5b506101d9600480360381019080803590602001909291908035906020019092919080359060200190929190803590602001909291908035906020019092919080359060200190929190803573ffffffffffffffffffffffffffffffffffffffff169060200190929190803573ffffffffffffffffffffffffffffffffffffffff169060200190929190505050610343565b005b3480156101e757600080fd5b5061021c600480360381019080803573ffffffffffffffffffffffffffffffffffffffff1690602001909291905050506106b3565b604051808981526020018881526020018781526020018681526020018581526020018481526020018373ffffffffffffffffffffffffffffffffffffffff1673ffffffffffffffffffffffffffffffffffffffff1681526020018273ffffffffffffffffffffffffffffffffffffffff1673ffffffffffffffffffffffffffffffffffffffff1681526020019850505050505050505060405180910390f35b60006020528060005260406000206000915090508060000154908060010154908060020154908060030154908060040154908060050154908060060160009054906101000a900473ffffffffffffffffffffffffffffffffffffffff16908060070160009054906101000a900473ffffffffffffffffffffffffffffffffffffffff16905088565b600073ffffffffffffffffffffffffffffffffffffffff168273ffffffffffffffffffffffffffffffffffffffff16141515156103e8576040517f08c379a00000000000000000000000000000000000000000000000000000000081526004018080602001828103825260168152602001807f496e76616c696420636c69656e7420616464726573730000000000000000000081525060200191505060405180910390fd5b600073ffffffffffffffffffffffffffffffffffffffff168173ffffffffffffffffffffffffffffffffffffffff161415151561048d576040517f08c379a00000000000000000000000000000000000000000000000000000000081526004018080602001828103825260168152602001807f496e76616c69642064726976657220616464726573730000000000000000000081525060200191505060405180910390fd5b610100604051908101604052808981526020018881526020018781526020018681526020018581526020018481526020018373ffffffffffffffffffffffffffffffffffffffff1681526020018273ffffffffffffffffffffffffffffffffffffffff168152506000808473ffffffffffffffffffffffffffffffffffffffff1673ffffffffffffffffffffffffffffffffffffffff168152602001908152602001600020600082015181600001556020820151816001015560408201518160020155606082015181600301556080820151816004015560a0820151816005015560c08201518160060160006101000a81548173ffffffffffffffffffffffffffffffffffffffff021916908373ffffffffffffffffffffffffffffffffffffffff16021790555060e08201518160070160006101000a81548173ffffffffffffffffffffffffffffffffffffffff021916908373ffffffffffffffffffffffffffffffffffffffff1602179055509050508173ffffffffffffffffffffffffffffffffffffffff167f96b801a982a9f93e99c7e4502d111437edb0c70dd648a6d878e8a710b41d1a2b89898989898988604051808881526020018781526020018681526020018581526020018481526020018381526020018273ffffffffffffffffffffffffffffffffffffffff1673ffffffffffffffffffffffffffffffffffffffff16815260200197505050505050505060405180910390a25050505050505050565b6000806000806000806000806106c7610840565b6000808b73ffffffffffffffffffffffffffffffffffffffff1673ffffffffffffffffffffffffffffffffffffffff16815260200190815260200160002061010060405190810160405290816000820154815260200160018201548152602001600282015481526020016003820154815260200160048201548152602001600582015481526020016006820160009054906101000a900473ffffffffffffffffffffffffffffffffffffffff1673ffffffffffffffffffffffffffffffffffffffff1673ffffffffffffffffffffffffffffffffffffffff1681526020016007820160009054906101000a900473ffffffffffffffffffffffffffffffffffffffff1673ffffffffffffffffffffffffffffffffffffffff1673ffffffffffffffffffffffffffffffffffffffff16815250509050806000015181602001518260400151836060015184608001518560a001518660c001518760e001519850985098509850985098509850985050919395975091939597565b61010060405190810160405280600081526020016000815260200160008152602001600081526020016000815260200160008152602001600073ffffffffffffffffffffffffffffffffffffffff168152602001600073ffffffffffffffffffffffffffffffffffffffff16815250905600a165627a7a72305820e2aeca15270df259c294f974d4c6180300ac3fea98a069176f24f8351996b77b0029",
  "source": "// SPDX-License-Identifier: MIT\r\npragma solidity ^0.4.26;\r\n\r\ncontract ChainRideContract {\r\n    struct Trip {\r\n        uint256 price;\r\n        uint256 distance;\r\n        int256 initialLongitude;\r\n        int256 initialLatitude;\r\n        int256 finalLongitude;\r\n        int256 finalLatitude;\r\n        address clientMetaAccount;\r\n        address driverMetaAccount;\r\n    }\r\n\r\n    // A mapping to store trips, indexed by the client's Ethereum address (clientMetaAccount)\r\n    mapping(address => Trip) public trips;\r\n\r\n    event TripRecorded(\r\n        address indexed clientMetaAccount,\r\n        uint256 price,\r\n        uint256 distance,\r\n        int256 initialLongitude,\r\n        int256 initialLatitude,\r\n        int256 finalLongitude,\r\n        int256 finalLatitude,\r\n        address driverMetaAccount\r\n    );\r\n\r\n    // Function to record a new trip\r\n    function recordTrip(\r\n        uint256 price,\r\n        uint256 distance,\r\n        int256 initialLongitude,\r\n        int256 initialLatitude,\r\n        int256 finalLongitude,\r\n        int256 finalLatitude,\r\n        address clientMetaAccount,\r\n        address driverMetaAccount\r\n    ) public {\r\n        // Check that the addresses are not zero\r\n        require(clientMetaAccount != address(0), \"Invalid client address\");\r\n        require(driverMetaAccount != address(0), \"Invalid driver address\");\r\n\r\n        // Create a new Trip struct and store it using the client's address as the key\r\n        trips[clientMetaAccount] = Trip({\r\n            price: price,\r\n            distance: distance,\r\n            initialLongitude: initialLongitude,\r\n            initialLatitude: initialLatitude,\r\n            finalLongitude: finalLongitude,\r\n            finalLatitude: finalLatitude,\r\n            clientMetaAccount: clientMetaAccount,\r\n            driverMetaAccount: driverMetaAccount\r\n        });\r\n\r\n        emit TripRecorded(\r\n            clientMetaAccount,\r\n            price,\r\n            distance,\r\n            initialLongitude,\r\n            initialLatitude,\r\n            finalLongitude,\r\n            finalLatitude,\r\n            driverMetaAccount\r\n        );\r\n    }\r\n\r\n    // Function to get trip details by clientMetaAccount (used instead of tripId)\r\n    function getTrip(\r\n        address clientMetaAccount\r\n    )\r\n        public\r\n        view\r\n        returns (\r\n            uint256,\r\n            uint256,\r\n            int256,\r\n            int256,\r\n            int256,\r\n            int256,\r\n            address,\r\n            address\r\n        )\r\n    {\r\n        Trip memory t = trips[clientMetaAccount];\r\n        return (\r\n            t.price,\r\n            t.distance,\r\n            t.initialLongitude,\r\n            t.initialLatitude,\r\n            t.finalLongitude,\r\n            t.finalLatitude,\r\n            t.clientMetaAccount,\r\n            t.driverMetaAccount\r\n        );\r\n    }\r\n}\r\n",
  "sourcePath": "C:\\React\\Final-Project1\\SmartContract\\contracts\\ChainRideContract.sol",
  "compiler": {
    "name": "solc",
    "version": "0.4.26+commit.4563c3fc.Emscripten.clang"
  },
  "schemaVersion": "3.4.16",
  "updatedAt": "2024-11-25T04:21:22.010Z",
  "networkType": "ethereum",
  "devdoc": {
    "methods": {}
  },
  "userdoc": {
    "methods": {}
  }
}